:020000040800F2
:10000000A0080020C1050008C5030008C7030008B8
:10001000CB030008CF030008D30300080000000052
:10002000000000000000000000000000D7030008EE
:10003000D903000800000000DB030008DD0300080E
:10004000DB050008DB050008DB050008DB05000810
:10005000DB050008DB050008DB050008DB05000800
:10006000DB050008DB050008DB050008DB050008F0
:10007000DB050008DB050008DB050008DB050008E0
:10008000DB050008DB050008DB050008DB050008D0
:10009000DB050008DB050008DB050008DB050008C0
:1000A000DB050008032C0008DB050008DB05000861
:1000B000DB050008DB050008DB050008DB050008A0
:1000C000DB050008DB050008DB050008DB05000890
:1000D000DB050008FB270008DB050008DB0500083E
:1000E000DB050008DB050008DB050008DB05000870
:1000F000DB050008DB050008DB050008DB05000860
:10010000DB050008DB050008FB1D0008DB05000817
:10011000DB050008DB050008DB050008DB0500083F
:10012000DB050008DB050008DB050008DB0500082F
:1001300000F002F800F0B0F80AA090E8000C824449
:100140008344AAF10107DA4501D100F0A5F8AFF226
:10015000090EBAE80F0013F0010F18BFFB1A43F0A5
:1001600001031847D8610000F86100000A444FF00D
:10017000000C10F8013B13F0070408BF10F8014B06
:100180001D1108BF10F8015B641E05D010F8016B4B
:10019000641E01F8016BF9D113F0080F1EBF10F8AF
:1001A000014BAD1C0C1B09D16D1E58BF01F801CBD2
:1001B000FAD505E014F8016B01F8016B6D1EF9D555
:1001C0009142D6D37047000000230024002500266A
:1001D000103A28BF78C1FBD8520728BF30C148BFAA
:1001E0000B6070476E2903F04F80702903F0B383D2
:1001F000662905F06083652905F05D83672905F0B0
:100200005A836129AFF3008003681B0A28BF41F0BD
:100210008001692902F0FC87642902F0F9877529B9
:1002200002F0F6876F2903F04083782903F07F837B
:10023000E92903F0DB82E42903F0D882F52903F0F1
:10024000D582EF2903F03D83F82903F07E8303680C
:10025000DB0928BF41F08001632903F0738473290F
:1002600003F07884E32903F08384F32903F088847E
:10027000002070471FB503F079FB04000020002127
:1002800004F0FEFA401C60600020002104F0E2FA55
:10029000E0601FBD10B510BD03F010FD1146FFF763
:1002A000E9FF00F00BF803F037FD03B4FFF7F2FFAE
:1002B00003BC02F093FA000030BF00008AB00920AE
:1002C00002F039FA482002F07FF900F099F900F0C5
:1002D00061FD0021632000F0EEFF0021632000F0AB
:1002E0003FFF00F0DBFE002314221946104600F009
:1002F00083FF4FF4E131482002F0B2FA00F01FFC16
:1003000000BF05E0802324A20021084600F0E5FBA1
:1003100000F0C4FD0028F5D1802322A20021084668
:1003200000F0DBFB00F077FE20A000F002FE31E0E1
:10033000601C84B2142C02D11CA002F0D3FD1D4815
:10034000007880B1242101A802F0D4FE082101A880
:1003500002F07AFA002002F063FA01A802F0C2FD6E
:1003600001A800F0E6FD0120134908601349C1F817
:10037000880113490860642002F05EF900200E49EC
:1003800008600F49091F08600C49C1F88C016420FE
:1003900002F052F9CCE700004E5246204552524F2F
:1003A000520000004E5246204F4B00006B6A37351A
:1003B0003431000074010020A48121420000214258
:1003C0008C012142704700BFFEE700BFFEE700BF7F
:1003D000FEE700BFFEE770477047704770470000B8
:1003E0000CB50020019000906C48006840F480300B
:1003F0006A49086000BF6948006800F40030009056
:100400000198401C0190009818B90198B0F5A06FB0
:10041000F1D16248006800F4003010B10120009072
:1004200001E0002000900098012843D15C4800685A
:1004300040F010005A4908600846006820F00300A8
:1004400008600846006840F00200086053484068B1
:10045000524948600846406848600846406840F491
:10046000806048600846406820F47C104860084678
:10047000406840F4E81048600846006840F080702A
:10048000086000BF4548006800F000700028F9D0FF
:100490004248406820F003004049486008464068F0
:1004A00040F00200486000BF3C48406800F00C008B
:1004B0000828F9D10CBD10B5FFF792FF10BD10B59B
:1004C0003648006840F0010034490860084640683A
:1004D00034490840314948600846006832490840BC
:1004E0002E4908600846006820F48020086008460D
:1004F000406820F4FE0048604FF41F008860FFF75A
:10050000DAFF4FF000602949086010BD10B50021E6
:1005100000200022214B5B6803F00C0121B104296B
:1005200006D0082928D107E0214B224C236027E080
:100530001F4B204C236023E0184B5B6803F47010C2
:10054000164B5B6803F48032022303EB904022B920
:10055000194B4343174C23600DE0104B5B6803F4C9
:10056000003323B1144B4343124C236003E0104B80
:100570004343104C236003E00D4B0E4C236000BF3F
:1005800000BF064B5B68C3F303130C4CE15C094BE3
:100590001B68CB40074C236010BD000000100240D8
:1005A000002002400000FFF8FFFFF6FE08ED00E02B
:1005B00000127A000000002000093D000400002025
:1005C0000948804709480047FEE7FEE7FEE7FEE7E7
:1005D000FEE7FEE7FEE7FEE7FEE7FEE70448054923
:1005E000054A064B70470000BF04000831010008AF
:1005F000A0020020A0080020A0040020A0040020E9
:100600000E48806940F00C000C4988610C48006875
:1006100020F47F400A4908600846006840F44C50C6
:1006200008600848006820F0F000064908600846A5
:10063000006840F030000860704700000010024081
:1006400000080140040C0140FE48006820F470409E
:10065000FC4908600846006840F440500860704754
:10066000F848006820F47040F649086008460068C1
:1006700040F40040086070470120F3490860F349E6
:10068000C1F88C010020F049091F0860EF49C1F84A
:10069000900170470120EC4908600020EB49C1F847
:1006A0008C010120E849091F08600020E749C1F8D2
:1006B000900170470120E44908600020E349C1F837
:1006C0009001704710B50020DF490860DF49C1F88C
:1006D0008C010120DC49086001F092FF0020DB4919
:1006E000C1F8900110BD10B50020D7490860012065
:1006F000D649C1F88C01D449086001F081FF00207F
:10070000D249C1F8900110BD002111E00022CE4B6A
:100710001A60C209CD4BC3F88C210122CA4B1A6062
:100720004206100E0022C94BC3F890214A1CD1B2D8
:100730000829EBDB704710B50446FFF79DFF7820D2
:10074000FFF7E2FFFFF7B6FF0020FFF7DDFFFFF73F
:10075000B1FF2046FFF7D8FFFFF7ACFFFFF79AFF86
:1007600010BD10B50446FFF787FF7820FFF7CCFFD8
:10077000FFF7A0FF4020FFF7C7FFFFF79BFF2046D2
:10078000FFF7C2FFFFF796FFFFF784FF10BD30B5FC
:1007900005460C461CB12846FFF7CDFF02E028466F
:1007A000FFF7DFFF30BD70B50646002419E004F105
:1007B000B001C8B20121FFF7EAFF01210020FFF7D5
:1007C000E6FF01211020FFF7E2FF002505E00021F0
:1007D0003046FFF7DCFF681CC5B2802DF7DB601CDC
:1007E000C4B2082CE3DB70BD30B504460D4605F1FC
:1007F000B001C8B20121FFF7CAFF102141EA14106D
:100800000121FFF7C4FF04F00F000121FFF7BFFF34
:1008100030BD00B501218D20FFF7B9FF0121142063
:10082000FFF7B5FF0121AF20FFF7B1FF00BD00B515
:1008300001218D20FFF7ABFF01211020FFF7A7FF5B
:100840000121AE20FFF7A3FF00BD30B5002419E061
:1008500004F1B001C8B20121FFF799FF0121002086
:10086000FFF795FF01211020FFF791FF002505E01C
:1008700000210846FFF78BFF681CC5B2802DF7DB0F
:10088000601CC4B2082CE3DB30BD30B5082419E08D
:1008900004F1B001C8B20121FFF779FF0121002066
:1008A000FFF775FF01211020FFF771FF002505E01C
:1008B00000210120FFF76BFF681CC5B2802DF7DB1C
:1008C000601CC4B2082CE3DB30BD2DE9F043814647
:1008D0000E461746984600250024A7F12000C5B211
:1008E000B8F1800F25D131464846FFF77DFF00BFA4
:1008F00008E0574901EB0511085D0021FFF747FFAC
:10090000601CC4B2082CF4DB701CC1B24846FFF76F
:100910006BFF00240AE04E4901EB051204F10801C7
:10092000505C0021FFF733FF601CC4B2082CF2DBDF
:1009300012E031464846FFF757FF00240AE005EB76
:100940004501444A02EB4101085D0021FFF71FFF0A
:10095000601CC4B2062CF2DBBDE8F0832DE9F04147
:1009600080460D461746E806050E002415E02819B6
:10097000C1B24046FFF738FF00260AE0364901EBD6
:10098000071106EBC402885C0021FFF700FF701C12
:10099000C6B2082EF2DB601CC4B2022CE7DBBDE855
:1009A000F0810246012002E050434B1ED9B20029DB
:1009B000FADC70472DE9F74F84B0804691464FF03E
:1009C000000A0025484604F079FD0746002431E07E
:1009D000C4F10B00C1B20A20FFF7E3FFB7FBF0F050
:1009E00008B14FF0010ABAF1000F01D1681CC5B27D
:1009F000BAF1010F12D1C4F10B00C1B20A20FFF706
:100A0000D0FFB7FBF0F000F0FF0B08EBC401A1EB47
:100A1000C501C8B25A460599FFF7A0FFC4F10B0003
:100A2000C1B20A20FFF7BDFFB7FBF0F100FB117761
:100A3000601CC4B20C2CCBDB08EBC401A1EBC501DC
:100A4000C8B20BE000140140908122420080224293
:100A5000D25B0008AA590008140000200A22059958
:100A6000FFF77CFF484604F029FD0390039804F04B
:100A70005DFD4946019004F09EFE8346774904F0EF
:100A80009DFD029004F01AFD0746002620E0C6F105
:100A90000200C1B20A20FFF784FFB7FBF0F000F0BC
:100AA000FF0BA119491C08EBC101A1EBC501C8B29C
:100AB0005A460599FFF752FFC6F10200C1B20A205B
:100AC000FFF76FFFB7FBF0F100FB1177701CC6B2A8
:100AD000032EDCDB07B0BDE8F08FF0B505460E460F
:100AE00014461F467006060E0EE0782D02DD002526
:100AF000B01CC6B222783B4631462846FFF7E5FED9
:100B000005F10800C5B2641C20780028EDD1F0BDC5
:100B10002DE9FE43054688461446204604F072FB44
:100B2000064632460B464EA1684602F0E7F980239E
:100B30006A4641462846FFF7D0FFBDE8FE8310B560
:100B40004948806940F0200047498861474800686B
:100B500020F47F20454908600846006840F44C3086
:100B6000086042480C30006840F018003F490C31E2
:100B70000860C82001F060FD0121AE20FFF707FEEC
:100B800001210020FFF703FE01211020FFF7FFFDE8
:100B900001214020FFF7FBFD0121B020FFF7F7FD09
:100BA00001218120FFF7F3FD0121FF20FFF7EFFD79
:100BB0000121A120FFF7EBFD0121A620FFF7E7FDB2
:100BC0000121A820FFF7E3FD01213F20FFF7DFFD12
:100BD0000121C820FFF7DBFD0121D320FFF7D7FD5E
:100BE00001210020FFF7D3FD0121D520FFF7CFFD24
:100BF00001218020FFF7CBFD0121D820FFF7C7FDA1
:100C000001210520FFF7C3FD0121D920FFF7BFFD1A
:100C10000121F120FFF7BBFD0121DA20FFF7B7FD2D
:100C200001211220FFF7B3FD0121DB20FFF7AFFD0B
:100C300001213020FFF7ABFD01218D20FFF7A7FD3B
:100C400001211420FFF7A3FD0121AF20FFF79FFD35
:100C5000FFF71BFEFFF7F9FD10BD000000007A440E
:100C600025302E32660000000010024000140140C2
:100C70000246002107E0481C81B24FF6FE70814217
:100C800001DB00207047F948008800F002000028CE
:100C9000F1D0F648001D0280002107E0481C81B217
:100CA0004FF6FE70814201DB0020EBE7EF48008841
:100CB00000F001000028F1D0EC48001D0088C0B20F
:100CC000E0E700B5EA48806940F00800E84988613B
:100CD0000846C06940F48040C861E6480068C0F337
:100CE0001300E449086008460068E3490843E14905
:100CF0000860E0480830006840F46040DD49083191
:100D00000860DA4808380088D84908390880084659
:100D1000008840F4007008800846008840F4807025
:100D200008800846008840F00400088008460088D3
:100D300008800846008840F00200088008460088C5
:100D400040F0010008800846008840F01800088044
:100D50000846008808800846008840F04000088067
:100D6000FF20FFF785FF00BD00F00700BF490839ED
:100D700009884FF6C7721140BC4A083A11801146E3
:100D8000098841EAC00111801146098841F04001FB
:100D90001180704700B5B648806940F02000B44922
:100DA0008861B448006820F47020B24908600846A1
:100DB000006840F440300860AE480830006840F4F5
:100DC0008050AC4908310860AC4800686FF30B00F4
:100DD000AA4908600846006840F44E700860A848B8
:100DE000C06840F4E050A649C860FFF76AFF9F481A
:100DF0000838008820F040009C49083908800846DF
:100E0000008820F0020008800846008820F00100D9
:100E100008800846008840F040000880002099497A
:100E2000086001209849C1F8A40100BDF0B506464C
:100E30000C46154600209349091F08603046FFF70D
:100E400017FF0746002305E0FF20FFF711FFE054DE
:100E5000581CC3B2AB42F7DB01208A49091F086066
:100E60003846F0BDF0B506460B46144600208549CD
:100E7000091F08603046FFF7FBFE0746002505E026
:100E800013F8010BFFF7F4FE681CC5B2A542F7DBAF
:100E900001207C49091F08603846F0BD1CB57BA1C4
:100EA00003C9CDE900010120FFF75EFF0522694675
:100EB0003020FFF7D7FF052269461020FFF7B6FF65
:100EC000002406E01DF80400A52800D003E0601C03
:100ED000C4B2052CF6DB00BF052C01D001201CBDDF
:100EE0000020FCE730B504460B4600206549091F89
:100EF00008602046FFF7BCFE05461846FFF7B8FE1F
:100F000001206149C1F8A401284630BD10B503464F
:100F100000205C49091F08601846FFF7A9FEFF2062
:100F2000FFF7A6FE044601205749C1F8A401204658
:100F300010BD30B505460220FFF716FF00205149CD
:100F4000086020222946A020FFF78CFF01204E498F
:100F5000C1F8A80100BF4B48883800680028FAD1C2
:100F60000720FFF7D3FF044621462720FFF7BAFFEB
:100F700004F0100028B1FF21E120FFF7B3FF10209B
:100F800030BD04F0200008B12020F9E7FF20F7E78A
:100F900030B504460220FFF7E7FE0720FFF7B6FF53
:100FA000054629462720FFF79DFF05F0400050B178
:100FB000202221466120FFF739FFFF21E220FFF7C1
:100FC00091FF002030BD0120FCE700B500202D4935
:100FD000086005222F492A20FFF744FF0121212024
:100FE000FFF780FF01212220FFF77CFF2821252029
:100FF000FFF778FF20213120FFF774FF0F21262013
:10100000FFF770FF0F212020FFF76CFF01201E4922
:10101000C1F8A80100BD00B500201A4908600522EA
:101020001D493020FFF71EFF05221A492A20FFF72D
:1010300019FF01212120FFF755FF01212220FFF791
:1010400051FF1A212420FFF74DFF28212520FFF70B
:1010500049FF0F212620FFF745FF0E212020FFF733
:1010600041FF01200849C1F8A80100BD083800402F
:1010700000100240040C01400000B0BB0414014009
:1010800000200140A881224200802242A5A5A5A5FA
:10109000A5000000C7610008C2610008F748806928
:1010A00040F05800F5498861F548006820F00F00CD
:1010B000F34908600846006840F003000860081F14
:1010C000006820F07040091F08600846006840F082
:1010D00040500860EB48006820F47060E9490860FF
:1010E0000846006840F440700860E748006820F453
:1010F0007F00E54908600846006840F44C1008602D
:10110000DE48806940F04000DC498861084680691B
:1011100040F008008861DA48001F006820F00F00E6
:10112000D749091F08600846006840F003000860BE
:10113000D4480068D5490840D2490860084600688C
:10114000D3490843CF490860081D006820F00F000C
:10115000091D08600846006840F0030008607047F9
:10116000C64AD26942F00202C44BDA611A46926959
:1011700042F008029A61C34A126822F0FF02C14B92
:101180001A601A46126842F0BB021A60C14A108007
:10119000121F1180BF4A103A128847F270031A4397
:1011A000BC4B103B1A801A46128840F608031A43BB
:1011B000B84B103B1A80B74A2C3A128842F0800292
:1011C000B44B2C3B1A80B34A183A128842F0010201
:1011D000B04B183B1A80AF4A0C3A128842F44C527A
:1011E000AC4B0C3B1A80AB4A2C3A128842F00102FD
:1011F000A84B2C3B1A80704730B549B10024A64D4E
:101200002C600124A54DC5F8A041A54D2C6009E036
:101210000124A14D2C600024A04DC5F8A04101245B
:101220009F4D2C609B4C143420804BB100249D4D6D
:101230002C6001249C4DC5F89041994D2C6009E02B
:101240000124984D2C600024974DC5F8904101244D
:10125000934D2C608F4C1034228030BD0122904B76
:101260001A60012804D18C4B1A608C4BC3F8A02162
:10127000022805D10022884B1A60884BC3F8A021B0
:10128000032802D10022864B1A60012905D10122D0
:10129000844B1A60844BC3F89021022905D10022A7
:1012A000804B1A60804BC3F89021032902D10022A1
:1012B0007B4B1A607047714AD26942F004026F4B4F
:1012C000DA611A46926942F008029A616D4A126820
:1012D00022F07F426B4B1A601A46126842F03B4282
:1012E0001A60724A1080121F1180704A143A1288D4
:1012F00047F270031A436D4B143B1A801A4612884A
:1013000040F608031A43694B143B1A80674A2C3A8B
:10131000128842F08002654B2C3B1A80634A183ACF
:10132000128842F00102614B183B1A805F4A0C3A66
:10133000128842F033025D4B0C3B1A805B4A2C3A18
:10134000128842F00102594B2C3B1A80704730B58D
:101350000124534D0C352C6041B10024504D1835FB
:101360002C6001244D4DC5F8804107E001244C4D0F
:1013700018352C600024494DC5F880414B4C0C3485
:10138000208043B10024464D08352C600124484D8F
:10139000C5F88C4107E00124414D08352C6000243C
:1013A000434DC5F88C41414C0834228030BD0128A2
:1013B00009D101223A4B18331A60384BC3F8802107
:1013C000374B0C331A6002280AD10022344B1833F1
:1013D0001A60324BC3F880210122314B0C331A6062
:1013E000032803D100222E4B0C331A60012909D1A6
:1013F00001222B4B08331A602D4BC3F88C21284B4C
:101400000C331A6002290AD10022254B08331A60D6
:10141000274BC3F88C210122214B0C331A6003297E
:1014200003D100221E4B0C331A60704713488069A9
:1014300040F01000114988611348006820F00F0047
:10144000114908600D48806940F400700B498861BB
:101450000846C06840F40070C8600846C06820F4C0
:101460000070C8600846406820F440404860084664
:10147000406840F40040486070470000001002409F
:1014800004180140000C014000100140FF0F00FF54
:10149000003033002C0400409C0123420000234212
:1014A0008881214294012242000022422C080040FF
:1014B00000802142FE48806940F03000FC4988618C
:1014C000FC48006820F07F40FA4908600846006840
:1014D00040F04C500860F848006820F07F40F64922
:1014E00008600846006840F04C5008607047F148BA
:1014F000006820F07060EF4908600846006840F01E
:10150000006008607047EB48006820F07060E949AF
:1015100008600846006840F040700860704700B5F9
:10152000FFF7F1FF0120E5490860E549C1F898019E
:101530000020E449086000BD00B5FFF7E4FF00208B
:10154000E04908600120E049C1F8BC01DD490860BC
:1015500000BD10B500240120DA490860FFF7C7FF7D
:101560000120D949C1F8BC01022001F049F807E087
:10157000601CC4B2FA2C03DDFFF7DEFF002010BDB3
:10158000D048803800680028F2D1CC49086001209A
:10159000F5E710B504460020C8490860FFF7B3FF1F
:1015A0000CB9012000E00020C6490860022001F0CB
:1015B00027F80120C449C1F8BC01022001F020F83D
:1015C0000020BE49086010BD00B502460020BB499E
:1015D0000860FFF798FF0020B949C1F8980100237F
:1015E00010E0D009B74908605006020E0120B64944
:1015F000C1F8BC010020B1490860B149C1F89801A7
:10160000581CC3B2082BECDB00BD70B506460024A5
:101610000020AA490860FFF76AFF002512E00020B9
:10162000A64908606006040E022000F0E9FF0120D0
:10163000A549C1F8BC01A348803800682044C4B261
:10164000681CC5B2082DEADB3046FFF7A2FF204632
:1016500070BD70B506460C461546FFF760FFD020FA
:10166000FFF7B2FFFFF775FF18B9FFF765FF00201E
:1016700070BD3046FFF7A8FFFFF76BFF18B9FFF703
:101680005BFF0020F4E7FFF74AFFD120FFF79CFF44
:10169000FFF75FFF18B9FFF74FFF0020E8E70DE005
:1016A000012C04D10020FFF7B0FF287003E00120D7
:1016B000FFF7ABFF2870601EC4B26D1C002CEFD189
:1016C000FFF73AFF0120D3E770B505460C46FFF758
:1016D00026FFD020FFF778FFFFF73BFF18B9FFF791
:1016E0002BFF002070BD2846FFF76EFFFFF731FF8C
:1016F00018B9FFF721FF0020F4E72046FFF764FF49
:10170000FFF727FF18B9FFF717FF0020EAE7FFF7F9
:1017100013FF0120E6E72DE9F04107460D46164686
:10172000FFF7FDFED020FFF74FFFFFF712FF20B9B4
:10173000FFF702FF0020BDE8F0813846FFF744FFC5
:10174000FFF707FF18B9FFF7F7FE0020F3E70024C3
:101750000BE0305DFFF738FFFFF7FBFE18B9FFF72E
:10176000EBFE0020E7E7601CC4B2AC42F1DBFFF700
:10177000E3FE0120DFE770B50446FFF7D0FED0207E
:10178000FFF722FFFFF7E5FE18B9FFF7D5FE0020AF
:1017900070BD2046FFF718FFFFF7DBFE18B9FFF713
:1017A000CBFE0020F4E7FFF7BAFED120FFF70CFFD5
:1017B000FFF7CFFE18B9FFF7BFFE0020E8E70020D3
:1017C000FFF723FF0546FFF7B7FE2846E0E770B5B1
:1017D00004460025BC2C01DB012510E0622C01DB56
:1017E00002250CE02A2C01DB032508E0142C01DB88
:1017F000042504E00A2C01DB052500E00625294626
:101800001A20FFF761FF70BD70B50446B4F57A7F0A
:1018100001DD4FF47A74042C00DA04244FF47A705A
:1018200090FBF4F0401EC5B229461920FFF74CFF8B
:101830000546264604EBD671C1F34F00FFF7C7FFFC
:1018400070BD10B50446E006010E1C20FFF73CFFFA
:1018500010BD10B50446E006010E1B20FFF734FF53
:1018600010BD10B5FFF726FE80216B20FFF72CFF7F
:10187000642000F0E1FE00216B20FFF725FF03202C
:10188000FFF7E7FF0020FFF7DCFF6420FFF7BCFF56
:1018900000213820FFF718FF00216A20FFF714FF0E
:1018A00000212320FFF710FF802137200EE00000E9
:1018B000001002400010014004140140BC8122428B
:1018C000000022429801224200802242FFF7FCFEE3
:1018D0007520FFF750FF0446682C09D101216B20C9
:1018E000FFF7F2FE00216C20FFF7EEFE204610BD50
:1018F0000020FCE710B54120FFF73DFF04464220E1
:10190000FFF739FF40EA0424204610BD2DE9F041DD
:1019100005460E46174600244320FFF72CFF0446D9
:101920004420FFF728FF40EA042420B22880002446
:101930004520FFF720FF04464620FFF71CFF40EA42
:10194000042420B2308000244720FFF714FF04460F
:101950004820FFF710FF40EA042420B2388000201E
:10196000BDE8F0812DE9F04105460E4617460024FA
:101970003B20FFF700FF04463C20FFF7FCFE40EA57
:10198000042420B2288000243D20FFF7F4FE044602
:101990003E20FFF7F0FE40EA042420B2308000240D
:1019A0003F20FFF7E8FE04464020FFF7E4FE40EA50
:1019B000042420B238800020BDE8F08110B53B201F
:1019C000FFF7D9FE04463C20FFF7D5FE40EA042489
:1019D000204610BD10B53D20FFF7CDFE04464FF662
:1019E000FF7000EA04243E20FFF7C5FE04432046B2
:1019F00010BD10B53F20FFF7BEFE04464020FFF7A4
:101A0000BAFE40EA0424204610BD10B54320FFF77B
:101A1000B2FE04464420FFF7AEFE40EA042420460E
:101A200010BD10B54520FFF7A6FE04464620FFF77F
:101A3000A2FE40EA0424204610BD10B54720FFF75F
:101A40009AFE04464820FFF796FE40EA042420460A
:101A500010BD2DE9F04F8BB081468A469346FE4873
:101A6000007801287AD10020FB4908700025002465
:101A70000BE0FFF7AFFF804603F058FD074629460D
:101A800003F0ECFB0546601CC4B20A2CF1DB2846CF
:101A900003F0B8FB0022F14BCDE9060102F0F4FFA0
:101AA00007460022EE4B02F0EFFFCDE9080102F0FD
:101AB000FDFE05464FF08041284603F04BFE05D25F
:101AC0004FF08141284603F081FE054600260024A0
:101AD0000BE0FFF78EFF804603F028FD07463146F6
:101AE00003F0BCFB0646601CC4B20A2CF1DB304696
:101AF00003F088FB0022D94BCDE9060102F0C4FFB8
:101B000007460022D64B02F0BFFFCDE9080102F0E4
:101B1000CDFE06463146284603F00EFC079003F042
:101B200071FBCDE9080102F085FD074602F0BEFE1B
:101B30000546CC49284603F041FD079003F062FBBF
:101B4000C94ACA4BCDE9080102F09EFF074602F0E0
:101B5000ADFEC7490860002500240CE071E0FFF7E6
:101B60002DFF804603F0E2FC0746294603F076FB92
:101B70000546601CC4B20A2CF1DB284603F042FB88
:101B80000022B64BCDE9060102F07EFF0746002297
:101B9000B34B02F079FFCDE9080102F087FE05465C
:101BA0004FF08041284603F0D5FD05D24FF081412A
:101BB000284603F00BFE0546002600240BE0FFF745
:101BC00018FF804603F0B2FC0746314603F046FB9F
:101BD0000646601CC4B20A2CF1DB304603F012FB4F
:101BE000074600229D4B02F04FFF00229C4BCDE99F
:101BF000060102F049FFCDE9080102F057FE064652
:101C00003146284603F098FB079003F0FBFACDE934
:101C1000080102F00FFD074602F048FE0546914913
:101C2000284603F0CBFC079003F0ECFA8E4A8F4B6A
:101C3000CDE9080102F028FF074602F037FE8D4982
:101C40000860FFF7D6FE074603F070FC06463046F4
:101C500003F0D8FA0022824BCDE9080102F014FF0C
:101C6000074602F023FE0646FFF7B4FE074603F0E0
:101C70005DFC0546284603F0C5FA0022784BCDE905
:101C8000080102F001FF074602F010FE05464FF082
:101C90008041284603F05EFD05D24FF08141284681
:101CA00003F094FD05463146284603F045FB0790B6
:101CB00003F0A8FACDE9080102F0BCFC074602F0E7
:101CC000F5FD05466A48006803F09CFACDE9060177
:101CD0006449284603F072FC039003F093FA074628
:101CE000614A624B02F0D0FECDE90401DDE9062332
:101CF00003F09EF9CDE9080102F0D8FDC9F8000013
:101D0000FFF75CFE074603F011FC0546284603F08A
:101D100079FA0022524BCDE9080102F0B5FE0746E0
:101D200002F0C4FD05464FF08041284603F012FD45
:101D300005D24FF08141284603F048FD0546314663
:101D4000284603F0F9FA079003F05CFA074602F020
:101D500071FCCDE9080102F0A9FD0546454800687F
:101D600003F050FACDE904013E49284603F026FC71
:101D7000019003F047FA07463B4A3C4B02F084FED1
:101D8000CDE90201DDE9042303F052F900223A4BC8
:101D9000CDE9060103F00CF8CDE9080102F086FD5B
:101DA000CAF800000020CBF800000BB0BDE8F08FAF
:101DB00010B53248C06940F008003049C86147207A
:101DC0002F4908804CF24F30091D08802C481C38E0
:101DD000008840F001002A491C390880284828382A
:101DE000008840F001002649283908800223322269
:101DF0001946032000F0DCFD10BD2148183800888A
:101E000000F0010020B11F480088401C1D490880D7
:101E10001B481838008820F001001949183908803B
:101E200070472DE9F04F87B005460E46174600244F
:101E300047E00A2000F000FC04AA05A906A8FFF765
:101E400065FD092C23DDBDF9180003F057FB83461F
:101E50005946404618E000001C01002000002440C4
:101E60000000D040000034431F85EB51B81E0940EC
:101E700014010020180100200000F0BF00100240F3
:101E8000280C00401001002003F0E8F98046092CDE
:101E900009DDBDF9140003F031FB8346594648467D
:101EA00003F0DCF98146092C09DDBDF9100003F0CF
:101EB00025FB83465946504603F0D0F98246601C04
:101EC000C4B23C2CB5DBFE49404603F035FA8046EF
:101ED000FB49484603F030FA8146F949504603F081
:101EE0002BFA8246404603F08DF90022F54BCDE9EE
:101EF000000102F05DFFCDE9020102F0D7FC80464F
:101F0000484603F07FF90022EE4BCDE9000102F0D4
:101F10004FFFCDE9020102F0C9FC8146504603F0B3
:101F200071F90022E74BCDE9000102F041FFCDE954
:101F3000020102F0BBFC8246C5F80080C6F80090A2
:101F4000C7F800A00020E049088007B0BDE8F08F86
:101F50002DE9F04F87B004460D461646DB48007861
:101F600000287DD04FF0000A40E00A2000F064FB1A
:101F700004AA05A906A8FFF7C9FCD549504603F0F5
:101F8000E9FB0BD2BDF9180003F0B8FA81464946C7
:101F9000D048006803F062F9CE490860CC49504649
:101FA00003F0D8FB0BD2BDF9140003F0A7FA814669
:101FB0004946C948006803F051F9C7490860C44957
:101FC000504603F0C7FB0BD2BDF9100003F096FAA0
:101FD00081464946C148006803F040F9BF4908609E
:101FE0004FF07E51504603F039F98246BC495046C5
:101FF00003F0B0FAB9D3B249B648006803F09CF9CF
:10200000B4490860AE49B448006803F095F9B24994
:102010000860AB49B148006803F08EF9AF49086029
:10202000AC48006803F0EEF807460022A54B02F02A
:10203000BFFECDE9020102F039FCA6490860A648BE
:10204000006803F0DFF800229E4BCDE9020102F0A8
:10205000AFFE074602F02AFC9F4908609F4800E057
:1020600012E0006803F0CEF80022964BCDE90201A1
:1020700002F09EFE074602F019FC98490860002015
:1020800092490870904908809048007800287DD1D6
:1020900004AA05A906A8FFF739FCBDF9180003F04A
:1020A0002DFA01908B480168019803F0D7F8834618
:1020B00003F0A8F807464FF066328A4B02F0E4FCC2
:1020C000CDE9020102F0F2FB8146484603F09AF89E
:1020D0000746854A854B02F069FF0AD2484603F05D
:1020E00091F80746804A824B02F026FE01D24FF05B
:1020F000000980490988481C03F000FA03907248DF
:10210000008803F013FA4946029003F057FA834619
:10211000039903F053FA8046774903F00DF9074617
:10212000216803F09BF82060BDF9140003F0E6F984
:10213000019069480168019803F090F8834603F024
:1021400061F807464FF06632664B02F09DFCCDE920
:10215000020102F0ABFB8146484603F053F8074604
:10216000614A624B02F022FF0AD2484603F04AF865
:1021700007465D4A5E4B02F0DFFD01D24FF00009D9
:102180005C490988481C03F0B9F900E05FE003905E
:102190004D48008803F0CAF94946029003F00EFA50
:1021A0008346039903F00AFA8046534903F0C4F8C2
:1021B0000746296803F052F82860BDF9100003F0C3
:1021C0009DF9019045480168019803F047F883465E
:1021D00003F018F84FF06632424BCDE9020102F0ED
:1021E00053FC074602F062FB8146484603F00AF8BA
:1021F00007463D4A3D4B02F0D9FE0AD2484603F05D
:1022000001F80746384A3A4B02F096FD01D24FF0EA
:10221000000938490988481C03F070F903902A48DE
:10222000008803F083F94946029003F0C7F983461A
:10223000039903F0C3F980462F4903F07DF8074660
:10224000316803F00BF8306000201F49088007B0A8
:10225000BDE8F08F2DE9F04F87B004460D461646D5
:102260002648007800287DD04FF0000A65E00A205B
:1022700000F0E2F904AA05A906A8FFF747FB1449F4
:10228000504603F067FA0BD2BDF9180003F036F997
:10229000814649461A48006802F0E0FF1849086084
:1022A0000B49504603F056FA30D2BDF9140003F042
:1022B00025F9814649461348006802F0CFFF23E024
:1022C000000048420000F0BF100100201D01002066
:1022D00000001041200100202401002028010020DE
:1022E00000007042666630409A9999999999B9BFF1
:1022F0009999B93F2C0C0040002474492C0100200E
:102300003001002034010020A0490860A049504657
:1023100003F020FA0BD2BDF9100003F0EFF881466C
:1023200049469C48006802F099FF9A4908604FF0BE
:102330007E51504602F092FF82469749504603F084
:1023400009F994D395499648006802F0F5FF94493D
:10235000086092498D48006802F0EEFF8B490860E2
:102360008E4900E037E08B48006802F0E5FF8949BC
:1023700008608B48006802F045FF0022894BCDE9D8
:10238000020102F015FD074602F090FA8449086048
:102390007E48006802F036FF0022824BCDE9020140
:1023A00002F006FD074602F081FA78490860794894
:1023B000006802F027FF00227A4BCDE9020102F00B
:1023C000F7FC074602F072FA72490860002076496D
:1023D0000870764908807448007800287ED104AAE5
:1023E00005A906A8FFF792FABDF9180003F086F8D0
:1023F00001906B480168019802F030FF834602F0BB
:1024000001FF07464FF06632694B02F03DFBCDE914
:10241000020102F04BFA8146484602F0F3FE0746FD
:10242000644A654B02F0C2FD0AD2484602F0EAFE59
:102430000746604A614B02F07FFC01D24FF0000971
:102440005F490988481C03F059F8834657480088BB
:1024500003F06CF84946039003F0B0F88046594603
:1024600003F0ACF80746574902F066FF2060BDF95B
:10247000140003F043F8019044480168019802F009
:10248000EDFE834602F0BEFE07464FF06632484B33
:1024900002F0FAFACDE9020102F008FA8146484654
:1024A00002F0B0FE0746434A434B02F07FFD0AD2DA
:1024B000484602F0A7FE07463E4A404B02F03CFC6D
:1024C00001D24FF000093E490988481C03F016F874
:1024D00003903648008803F029F800E052E0834674
:1024E000494603F06BF88046039903F067F8074606
:1024F000344902F021FF2860BDF9100002F0FEFF10
:10250000019024480168019802F0A8FE834602F079
:1025100079FE07464FF06632254B02F0B5FACDE959
:10252000020102F0C3F98146484602F06BFE0746FD
:10253000204A214B02F03AFD0AD2484602F062FEE0
:1025400007461C4A1D4B02F0F7FB01D24FF0000971
:102550001B490988481C02F0D1FF039013480088EA
:1025600002F0E4FF8346494603F028F880460399C9
:1025700003F024F80746134902F0DEFE3060002025
:102580000A49088007B0BDE8F08F00003401002040
:102590000000104138010020000070420000484255
:1025A000300100200000F0BF2C01002010010020AD
:1025B000666630409A9999999999B9BF9999B93FA6
:1025C0002C0C0040002474494FF0E021096921F0EF
:1025D00004014FF0E0221161C21700EB5272C2F306
:1025E000C702234B1A701946097801EB4102C2EB6E
:1025F000C1114FF6FF7202EAC1011E4A11807047F5
:1026000001461B4A12784A434FF0E0235A610022E8
:102610009A6101221A6100BF4FF0E022106900F0B8
:1026200001021AB100F48032002AF5D000224FF0E6
:10263000E0231A619A61704701460E4A12884A43A4
:102640004FF0E0235A6100229A6101221A6100BF13
:102650004FF0E022106900F001021AB100F480325C
:10266000002AF5D000224FF0E0231A619A617047EA
:102670003C0100203E010020002050490861C86054
:102680001420486100208861C8610846006840F055
:1026900001000860084640684949084047494860C9
:1026A00008460068474908404449086008460068F1
:1026B00020F4802008600846406820F4FE0048604E
:1026C00000208860704710B53F48006840F0040063
:1026D0003D4908603948C06940F080503749C861B9
:1026E0003A48406840F480703849486008460068BD
:1026F00040F0040008600846006840F002000860EE
:10270000FDF7DAFD10BD32482F49091F08607047F8
:1027100001464906294A926942F00102274B9A6113
:102720002C4A526822F0E0622A4B5A601A465268DC
:102730000A435A60704700B502460023FFF79CFF2A
:102740001E48006840F480301C49086000BF1B48E8
:102750000068400C0028FAD04FF4806017494860A8
:10276000901EC2B20846406840EA8240486008466F
:10277000406840F4803048601748006840F03200FC
:10278000154908600D48006840F080700B490860EA
:1027900000BF0A480068400E0028FAD00748406889
:1027A00040F002000549486005E004484068C0F375
:1027B000870303F00303022BF7D100BD0010024092
:1027C0000000FFF8FFFFF6FE10ED00E00070004093
:1027D0000400FA050000014000200240014600BF4D
:1027E000704700BF644A128802F04002002AF9D004
:1027F000C2B2614B1B1D1A8070475F49098801F006
:10280000200161B15C49091D0988C8B25B495C4A75
:10281000128888545A490988491C594A11807047BE
:1028200010B50446554800F051FB1CB9C821534867
:1028300000F03EFC00205249088010BD10B5C821B0
:102840004E4800F035FC10BD0A46002105E04B4B18
:102850005B5C0370401C4B1CD9B29142F7DB7047A4
:102860002DE9F05F05460E46300102F05FFE81461D
:10287000444905FB01F002F059FE8246494602F048
:102880005BFD0746384602F019FE84B2204602F08E
:102890004DFE8346394602F08EFF82464FF083415B
:1028A00002F08CFE814602F009FE80464FF6FF7072
:1028B00000EA041404EB080084B23348806940F055
:1028C0000400314988610846806940F4804088618D
:1028D0002E48006820F47F602C4908600846006894
:1028E00040F40B6008602848C06840F480402649E6
:1028F000C8600846C06820F48040C8601E480830A0
:102900000480001D008842F20C0108431A490C3172
:1029100008800846008840F0200008800223252215
:102920000321084600F044F8BDE8F09F00BF1249BB
:10293000098801F040010029F9D00F49091D0880DC
:10294000704710B5044600BF0B48008800F04000F7
:102950000028F9D0204602F0B1FD0749091D088082
:1029600010BD00B5024603E01078FFF7DFFF521CF0
:1029700010780028F8D100BD003801407401002013
:102980004401002040420F000010024004080140B2
:102990000146072323EA01021202414B18684FF651
:1029A000FF0318403F4B184310433D4B18607047DE
:1029B0002DE9F0410746884614461D462846FFF794
:1029C000E7FFC5F1040007FA00F60F20284100EAEE
:1029D0000800064306F00F06E21704EBD26252111C
:1029E000920002F1E022D2F800212146E31704EB25
:1029F000D3635B11A4EB431C012303FA0CF31A43CA
:102A00002046E31704EBD3635B119B0003F1E02343
:102A1000C3F800212448005D40EA06102249085509
:102A2000BDE8F08170B503460846CE1701EB9676F7
:102A3000C6F38704CE1701EB9676B610A1EB860697
:102A4000B606350E1948806940F00100174EB06196
:102A50004FEAB63050F8240003FA05F63043144E1E
:102A600046F82400134806680120884006431148B0
:102A7000066042B90F480C30006801268E40304392
:102A80000C4E0C363060012A08D10A480830006824
:102A900001268E403043074E0836306070BD00007E
:102AA0000CED00E00000FA0500E400E00010024038
:102AB00008000140000401402DE9F04F89B00446B0
:102AC0000D4601AA02A903A8FEF7C3FF04AA05A99F
:102AD00006A8FFF7BFFB2068069902F0BFFB08902D
:102AE0002868059902F0BAFB0790E9480168006878
:102AF00002F064FD8246E7480168504602F0AEFBF2
:102B00000646E3480168006802F058FD8246E24844
:102B10000168504602F0A2FB0746E04801680068E1
:102B200002F04CFD8346314602F098FB8246514646
:102B3000304602F001FC8046D8480168006802F087
:102B40003DFD8346394602F089FB824651463846B0
:102B500002F0F2FB81460899039802F037FE8346A3
:102B6000414602F02BFD8246089902F077FB206077
:102B70000799029802F02AFE8346494602F01EFD9C
:102B80008246079902F06AFB286041464FF07E506A
:102B900002F01CFE8346314602F010FD82463146AB
:102BA00002F00CFDBB49086049464FF07E5002F030
:102BB0000DFE8346394602F001FD8246394602F099
:102BC000FDFCB549086009B0BDE8F08F10B5B44808
:102BD000806940F40060B24988616320B14908808F
:102BE0004720091F08800120AE4920390880AD49DF
:102BF0002C3908800223192219460320FFF7D8FE3A
:102C000010BDA8481C38008800F0010060B1A6483B
:102C10000088401CA4490880A448006808B9012025
:102C200000E00020A14908609E481C38008820F080
:102C300001009C491C39088070472DE9F04F91B084
:102C400004460D46904699461AAE96E8C00C0FA968
:102C500010A8FFF731FF0020109902F0B7FD0A908D
:102C600093480A99006802F0A9FC0990914801680C
:102C70008F48006802F060FB01900A9902F09EFC08
:102C80004FF07E51029002F099FC0390089902F0F7
:102C9000E5FA0890884801688548006802F08EFCD3
:102CA00002900A9902F08AFC4FF07E51039002F0E4
:102CB00043FB079081480A99006802F07FFC069068
:102CC0007948008802F032FC00900A9902F076FC04
:102CD00002907B4801687948006802F02DFB019062
:102CE000029902F06BFC0390059902F0B7FA059087
:102CF0006D48008802F01AFC0390724801686F4822
:102D0000006802F05BFC01900A9902F057FC029007
:102D1000039902F011FB0490DDE9081002F09EFA1D
:102D20000390079902F09AFA0E90DDE9081002F07C
:102D300095FA0390079902F091FA0D90DDE90510DC
:102D400002F08CFA0390049902F088FA0C90DDE905
:102D5000051002F083FA0390049902F07FFA0B90B9
:102D600000210E9802F0F6FC0ED8002088F8000032
:102D70000E9802F0A3FB20802088B0F57A7F14DD46
:102D800040F2E730208010E0012088F800000E9823
:102D900080F00040039002F091FB20802088B0F585
:102DA0007A7F02DD40F2E730208000210D9802F0AA
:102DB000D1FC0ED8002089F800000D9802F07EFBAF
:102DC00028802888B0F57A7F14DD40F2E73028802B
:102DD00010E0012089F800000D9880F00040039079
:102DE00002F06CFB28802888B0F57A7F02DD40F283
:102DF000E730288000210C9802F0ACFC0ED80020AF
:102E00008AF800000C9802F059FB30803088B0F549
:102E10007A7F14DD40F2E730308010E001208AF83C
:102E200000000C9880F00040039002F047FB3080D7
:102E30003088B0F57A7F02DD40F2E7303080002143
:102E40000B9802F087FC0ED800208BF800000B983E
:102E500002F034FB38803888B0F57A7F14DD40F218
:102E6000E730388010E001208BF800000B9880F0EC
:102E70000040039002F022FB38803888B0F57A7F5A
:102E800002DD40F2E730388011B0BDE8F08F00007D
:102E90004C01002054010020580100205001002066
:102EA000001002402C2C014048010020908121425A
:102EB0005C01002060010020640100206801002006
:102EC0006C01002070010020704700000FB404491D
:102ED00010B503AA029800F019FC10BC5DF814FBB1
:102EE000400100200FB4044910B503AA029800F075
:102EF0000DFC10BC5DF814FB400100200FB41CB5A4
:102F0000084B06AA7B4469460090059800F0E5FB53
:102F100004460020694600F0F3FB20461CBC5DF827
:102F200014FB0000F90700002DE9F05F8946044614
:102F30004FF0000ADFF874B1FB44C0F820A020462F
:102F4000E1688847002874D0252806D0D4E90121FB
:102F50009047206A401C2062F1E700265F46204629
:102F6000E16888472028054607DB312D05D278190E
:102F700010F8200C08B10643F1E7B00701D526F0A0
:102F80000406C4F81CA00027C4F818A02A2D09D0F4
:102F9000284601F047FB38B304EB8708303DC8F8FA
:102FA000185019E059F8041B204604EB8702916180
:102FB000E1688847012F054618D1E069002820DA2A
:102FC00026F020061DE0D8F8180000EB800005EB85
:102FD00040003038C8F818002046E16888470546A8
:102FE00001F020FB0028EED1012F0AD02E2D08D1B0
:102FF0002046E16888477F1C0546022F46F02006E0
:10300000C4DBA069002803DA404246F00106A06153
:10301000F00701D026F010066C2D0BD0682D09D0DA
:103020004C2D39D06A2D35D0742D35D07A2D33D032
:1030300016E038E0E1682F4620468847B84205464A
:1030400009D16C2F26D04FF48060E16806432046FA
:103050008847054604E06C2F1AD04FF48070064371
:103060000DB3A5F14100192802D8203546F40066B9
:103070004A462946204626604E46FDF7B3F880B101
:1030800001280BD0F61D26F0070000F1080956E7CD
:103090004020E4E78020D8E70020D6E706F10409C5
:1030A0004DE7284652E7206ABDE8F09F90320000C5
:1030B0004FF000020429C0F0128010F0030C00F061
:1030C0001B80CCF1040CBCF1020F18BF00F8012BDF
:1030D000A8BF20F8022BA1EB0C0100F00DB85FEAAD
:1030E000C17C24BF00F8012B00F8012B48BF00F879
:1030F000012B70474FF0000200B5134694469646E8
:10310000203922BFA0E80C50A0E80C50B1F12001FA
:10311000BFF4F7AF090728BFA0E80C5048BF0CC0A8
:103120005DF804EB890028BF40F8042B08BF704706
:1031300048BF20F8022B11F0804F18BF00F8012B78
:103140007047704770477047704770B5044685698F
:103150000068C10601D5302600E02026C00707D050
:1031600070BDD4E9012130469047206A401C20629E
:103170006D1EF6D570BD70B5044685690078C00730
:1031800007D170BDD4E9012120209047206A401C5E
:1031900020626D1EF6D570BD09684A0501D540B2A2
:1031A0007047C905FCD500B2704709684A0501D5CA
:1031B000C0B27047C905FCD580B2704770B50C46E7
:1031C0000546012A05D02878800600D5EA69002343
:1031D00002E0012305E05B1C934202D2E05C002880
:1031E000F9D1A869E618C01AA861286A18442862AB
:1031F0002846FFF7AAFF04E0D5E9012114F8010BE6
:103200009047B442F8D32846FFF7B5FF70BD0000E1
:103210002DE9F0410646002410687529314616A5AF
:1032200010D0FFF7B9FF002802DA404213A507E0EB
:1032300031688A0701D512A502E0490704D511A516
:10324000012401E0FFF7B1FF00210A2206F1240763
:1032500009E0B0FBF2FCB0FBF2F302FB1C003030E3
:1032600078541846491C0028F3D123462A46304694
:10327000BDE8F04100F0C3BB000000002D000000DD
:103280002B0000002000000011680268006A53054E
:1032900001D508700AE0D30501D5088006E01306C1
:1032A00003D5C217C1E9000200E0086001207047A1
:1032B00070472DE9FF4F0C461E464FF0FF378BB08D
:1032C000D2E90001DDF860800A908A46C1F30A5510
:1032D00005B93D46002108464FF00000BAF1000F45
:1032E00000F4400005DA00EB80004FF4400101EAF1
:1032F00050004FEA9059B9F1010F00DDB9460A9824
:1033000050EA4A000ED044F61050A5F2FF3545436E
:103310002F14B8F1000F1ED07542291E1EDDC9F111
:1033200000021CE0B8F1010F4FF0000001D0302185
:1033300003E0F24305E02154401CB042FBDB304681
:103340000022002121540B99C1F80880C1E9002016
:103350000FB0BDE8F08FBD1B6D1CDEE74A4600DAFA
:10336000694206A800F010FC06AB93E8070003AB27
:1033700083E8070050460A9900F018FD8DE8070021
:10338000A0F500501F3800900398002D0ADD42F28E
:103390001F014A460844002303A90390684600F031
:1033A00081FF09E0A0F500504A461F38002303A919
:1033B0000390684600F08BFF8DE807000004000CC6
:1033C00003D04FF0FF30410800E01046B8F1000F85
:1033D00003D00022009215461EE0751E05D400F0B1
:1033E000C9FA303262556D1EF9D5B3460122084341
:1033F00002D000227F1C04E02078302801D1002276
:103400007F1E002A099784D01DE0112D07DA00F0F5
:10341000B1FA303262556D1C50EA0102F5D1084311
:1034200002D00098C8B10EE00021681E05E0235CC0
:10343000625C63542254401E491C8142F7DBAB4658
:10344000A81B401E0990002004F80B000B98099A55
:10345000C0F80880C0E9002B7AE711264FF0000879
:1034600057E72DE9F04F88460446D21D22F00701A8
:1034700091B0D1E90001CDE90A0101F05FF80246FF
:103480000B98C00F01D02D2007E02068810701D5DF
:103490002B2002E0202101EAC000032A099001D07C
:1034A000072A05DB03464146204600F001FB0BE1FD
:1034B0002078800601D5E06900E00620B8F1650FAC
:1034C000814606D0B8F1660F18D0B8F1670F70D1F9
:1034D00031E00020B9F1110F009001DB112301E070
:1034E00009F101030AAA01A90CA8FFF7E2FEDDE930
:1034F0000C70002609F10105834647E001204B4688
:1035000000904FF000470AAA01A90CA8FFF7D1FECE
:10351000DDE90DB00C995D46002610B909F10100F6
:103520000D18B9EB050003D4C0F1FF3609F1010510
:10353000A5EB09002BE0B9F1010F01DA4FF0010909
:103540000020B9F1110F0090484601DD112300E081
:1035500003460AAA01A90CA8FFF7ABFEDDE90C702F
:103560004D4600268346207800070AD4AB4500DA92
:103570005D4601A8012D04DD411911F8011C302917
:1035800007D04F4502DA17F1040F04DA0120824612
:103590000FE06D1EEEE7002F02DCED1B3E4403E062
:1035A000781CA84200DD7D1CB81B00F1010A4FF019
:1035B00000472078000703D4AA4501DB4FF0FF3A0B
:1035C0000021B7F1004F0DF143088DF8431024D0CE
:1035D00002202B23002F01DA7F422D230A21021E15
:1035E000A0F1010000DC5FB197FBF1FC97FBF1F269
:1035F00001FB1C7C17460CF1300C08F801CDEEE7FE
:10360000A8F1010003702188090501D5452100E0DA
:103610006521A0F1010800F8011C09980FA9A1EB90
:103620000807FF1D00B10120411901EBEA70A169F3
:103630003844081A401EA0612078C00602D42046F3
:10364000FFF783FD099828B1D4E901219047206A4A
:10365000401C20622078C00622D52046FFF775FD69
:103660001EE0002E04DBB34502DD01A8805D00E012
:103670003020D4E901219047206A401C2062761C4A
:10368000AAF101005FEA000A0AD100F06FF9C068F0
:103690000168405CD4E901219047206A401C206207
:1036A000281EA5F10105DCDC07E0D4E9012118F8AA
:1036B000010B9047206A401C2062381EA7F10107C9
:1036C000F3DC2046FFF757FD032011B041E6000070
:1036D00001694A1C02610878704700B58FB0CDE9D6
:1036E00001310021059105497944CDE903101146C6
:1036F0006846FFF719FC0FB000BD0000E5FFFFFFB3
:103700000A6802F8010B0A6070470000074B70B5A9
:103710000D467B44FFF7E1FF0446284600F0A6FA79
:1037200010B14FF0FF3070BD204670BDCDF0FFFFEF
:103730002DE9FF5F15468A460446DFF8AC80F84461
:103740000027D8E900103E46CDE9001010E03AF815
:1037500016106A4602A800F08DFA411C07D02178A5
:10376000890603D5E269391891420DD80744761CC1
:103770002078800602D5E069B84205DDAE42E6DB7E
:103780003AF816000028E2D1A069C01BA0612046CB
:10379000FFF7DBFCD8E90010CDE90010002017E0AE
:1037A0003AF818106A4602A800F064FAB0F1FF3F38
:1037B00081460BD000250DF1080B05E0D4E901216D
:1037C0001BF8050090476D1C4D45F7D308F101002B
:1037D000B0428046E4DB206A384420622046FFF78E
:1037E000CAFCBDE8FF9F0000362B00002DE9F04128
:1037F0008046D21D22F007020025D2E90002F529F9
:1038000015A614D0011E72F1000106DA0023D0EBD8
:10381000030063EB020211A608E0D8F800108B0742
:1038200001D50FA602E0490701D50EA601251146D4
:10383000002408F1240704E000F09CF830323A55E7
:10384000641C50EA0102F7D12B463246214640461D
:10385000BDE8F04100F0D3B8000000002D000000EA
:103860002B0000002000000030B4002100F12404EF
:1038700008E002F00705D208303542EA4372DB085F
:103880006554491C52EA0305F3D10468002310A2D1
:10389000250707D5A40600D421B1C46901230DA2D0
:1038A000641EC46130BC00F0AAB810B504462146BD
:1038B0001068FFF77AFC02462046BDE8104000235E
:1038C000D2E7D21D22F00701D1E90023CCE70000A6
:1038D0000000000030000000F0B40D46018809052A
:1038E00002D5214C7C4402E01F4C7C440E34002164
:1038F00000F1240608E002F00F071209E75D42EA32
:1039000003721B097754491C52EA0307F3D102786A
:103910000023120704D5702D06D009B102231134FB
:103920002246F0BC00F06BB801231034F8E770B504
:1039300004460D4621461068FFF737FC024629462B
:103940002046BDE870400023C6E7D21D22F00703E1
:10395000D3E90023C0E70368126843F02003036043
:103960000823C3610023B7E7982900000048704787
:103970005C02002030B5B0F10A024FEA900E71F1FE
:1039800000034EEA817EB0EB0E0061EB91014FEA3D
:10399000101E4EEA017E10EB0E0041EB11114FEAB2
:1039A000102E4EEA016E10EB0E0041EB11214FEA92
:1039B000104E4EEA014E10EB0E0041EB1141401843
:1039C00041F100014FEAD00040EA41704FEAD101D5
:1039D00010EB80054FEA810444EA907444EB010443
:1039E0006D1944EB0404521BA3414FF0000348BF80
:1039F0000A3200D530BD401C41F1000130BD2DE937
:103A0000F0470D4699469246044600F124080168A5
:103A1000880604D5E06921F01001216000E0012052
:103A2000A84201DD471B00E00027A1697A1902EBDB
:103A30000900081AA0612078C00602D42046FFF7CA
:103A400084FB002608E0D4E901211AF8060090471B
:103A5000206A401C761C20624E45F4DB2078C006AC
:103A60000AD52046FFF771FB06E0D4E9012130209A
:103A70009047206A401C2062381EA7F10107F4DC41
:103A800007E0D4E9012118F805009047206A401C9E
:103A90002062281EA5F10105F3DC2046FFF76BFB31
:103AA0002078000602D50220BDE8F0870120FBE760
:103AB0002DE9F0411F46044603260168072A01F458
:103AC000006004DB08B116A505E016A503E008B107
:103AD00015A500E015A521F010002060A069C01E0A
:103AE000A0610FB1401EA0612046FFF72EFB4FB131
:103AF000D4E9012138469047206A401C2062C01C4E
:103B0000206206E0206AFAE7D4E9012115F8010BEA
:103B10009047761EF8D22046FFF72DFBBDE8F081D6
:103B20004E414E006E616E00494E4600696E660061
:103B300010B5436913B1AFF3008001E0FFF73EFB1E
:103B4000012010BD127800F124010A7000224A7091
:103B50000122EDE711684FF0FF32E9E710B5436944
:103B600013B1AFF3008001E0FFF7E2FD012010BDCB
:103B7000128800F1240182840022C2840122EDE730
:103B800011684FF0FF32E9E72DE9F047814616460C
:103B90008AB0354878440DC88DE80D003248784425
:103BA000801C03AC0DC884E80D0041F69B3008442E
:103BB000372190FBF1F290FBF1F5A5F1800501FBB7
:103BC00012041B3C02D56442012000E00020DFF813
:103BD00098A080460027FA44AAF1BE0A0EE0E0074A
:103BE0000AD03246684607EB470101230AEB810100
:103BF00000F06DFB8DE8070064107F1C002CEED1F7
:103C0000194F7F44AE3F19E0E80715D007EB0410C9
:103C10000DF1180A90E80E008AE80E00C068F04224
:103C200001D1981908903246012306A903A800F093
:103C30004EFB03AB83E807006D10641C002DE3D13D
:103C40004FF0010332466946B8F1000F03A802D0D5
:103C500000F028FB01E000F03AFBC9E90001C9F8D7
:103C600008200AB0BDE8F0878C270000007B00F038
:103C70008000704770B516460C46054600F044F8C3
:103C8000036893F80101012806D0FF2C0FD8185DB6
:103C900068B101202C7070BDD3F80701324621466F
:103CA00003F2071303442846BDE8704018474FF05D
:103CB000FF3070BD004870473C0200207546FFF79A
:103CC000F9FFAE4605006946534620F007008546D9
:103CD00018B020B5FCF782FCBDE820404FF000068C
:103CE0004FF000074FF000084FF0000B21F00701E4
:103CF000AC46ACE8C009ACE8C009ACE8C009ACE827
:103D0000C0098D467047000010B5FFF72FFE001D5B
:103D100010BD00BF6D0B000010B50446AFF300806E
:103D20002046BDE81040FCF7C0BA00004FF0013C4F
:103D300050F8042B51F8043B9A4221D1A2EB0C031A
:103D4000934313EACC1317D150F8042B51F8043BDA
:103D50009A4215D1A2EB0C03934313EACC130BD177
:103D600050F8042B51F8043B9A4209D1A2EB0C0302
:103D7000934313EACC13DBD04FF00000704700BF31
:103D8000D01A01BAB1FA81F101F0180122FA01F05A
:103D9000CB40C1F12001DBB2C0B2C01A2CFA01F352
:103DA000D11A914311EAC311E6D170475FEA400C82
:103DB00008BF91F0000F4FEA8C234FEAC12243EA7B
:103DC00051514FEA1C5018BF00F5F0404FEA300047
:103DD00018BF41F000415FEA6C5C00F02980BCF143
:103DE000FF3F08BF40F080407047130C06BF12042D
:103DF0004FF0100C4FF0000C130E04BF12020CF128
:103E0000080C130F04BF12010CF1040C930F04BF34
:103E100092000CF1020CD30F04BF52000CF1010C04
:103E200011464FF00002A0F11F00A0EB0C007047FC
:103E300011F0004F08BF704731F000413FF4D5AF9B
:103E40000B0C06BF09044FF0100C4FF0000C0B0ECA
:103E500004BF09020CF1080C0B0F04BF09010CF19F
:103E6000040C8B0F04BF89000CF1020CCB0F04BFB4
:103E700049000CF1010CCCF12003A0EB0C0022FA5C
:103E800003F302FA0CF241EA030100F1010070476A
:103E900020F07F4C80EA030023F07F47ACEB070360
:103EA00003F57C5300F0004003F1FF032DE9804946
:103EB0004FEA154B09B44FEA144325EA0B4E24EAA6
:103EC00003480FF2042606EB132749083E785FEA01
:103ED000320203FB0667C7F5000707FB06F64FEA49
:103EE00054374FEAD64606F1020607FB066CCCF1C2
:103EF000005C4FEA1C472CEA074C07FB06F40CFB5E
:103F000006F504EB15464FEA961634BF00204FF035
:103F100000404FEAD13706FB07FC4FEA1C4C0CFB74
:103F20000BF7D21B03FB0CF761EB07010CFB0EF741
:103F3000B0EB074072EB17420CFB08F734BFA2EB63
:103F40000742B2EB074261EB17414FEA0C444FEADC
:103F5000910706FB07FC4FEA1C4C0CFB0BF7B0EB80
:103F6000C74072EB573203FB0CF734BFA2EBC742DA
:103F7000B2EBC74261EB57310CFB0EF7B0EBC70059
:103F800072EB57720CFB08F734BFA2EBC702B2EB1F
:103F9000C70261EB5771039F4FEA816141EA9211B9
:103FA00004EBCC044FEAD1374FEA826206FB07FCF0
:103FB00042EA90124FEA80604FEA1C4C0CFB0BF770
:103FC000D21B03FB0CF761EB07010CFB0EF7B0EB08
:103FD000074072EB17420CFB08F734BFA2EB074215
:103FE000B2EB074261EB17414FEA8C554FEA91075C
:103FF00004EB9C2406FB07FC4FEA1C4C0CFB0BF764
:10400000B0EBC74072EB573203FB0CF734BFA2EBA7
:10401000C742B2EBC74261EB57310CFB0EF7B0EB76
:10402000C70072EB57720CFB08F734BFA2EBC70254
:10403000B2EBC70261EB577115EB4C254FEA81617A
:1040400041EA92114FEA82624FEAD13742EA901276
:1040500006FB07FC44F100044FEA80604FEA1C4C69
:104060000CFB0BF7D21B03FB0CF761EB07010CFBFE
:104070000EF7B0EB074072EB17420CFB08F734BFAA
:10408000A2EB0742B2EB074261EB174115EB1C159F
:104090004FEA813141EA92414FEA823242EA90424C
:1040A0004FEA80304FEA0C7644F1000448EA0343BB
:1040B0004EEA0B484FF0000EB2EB080C71EB030711
:1040C00024BF624639464EEB0E0E4FF0000B00182F
:1040D000524149414BEB0B0BB2EB080C71EB030760
:1040E0007BF1000B24BF624639464EEB0E0E4FF0BB
:1040F000000B0018524149414BEB0B0BB2EB080C83
:1041000071EB03077BF1000B24BF624639464EEB8F
:104110000E0E51EA020718BF46F0010616EB0E76A6
:1041200055F1000254F1000103D5BDE88901BDE855
:104130000088BDE88901BDE80048B619524141EB4D
:104140000101A3F10103704780807F7E7D7C7B7A33
:104150007978777676757473727171706F6E6E6D33
:104160006C6C6B6A6A6968686766666564646363D9
:1041700062616160605F5F5E5E5D5D5C5C5B5B5A5F
:104180005A595958585757565655555554545353CC
:1041900052525251515050504F4F4F4E4E4D4D4D27
:1041A0004C4C4C4B4B4B4A4A4A4949494848484772
:1041B00047474746464645454544444444434343B0
:1041C0004342424242414141002B9C4630D4770059
:1041D0002BD01CB54FEA370703B44FF010004FF057
:1041E0001001BAF1000F06D0BCF1000FDCBF40F0A7
:1041F000080040F008014FF000000FBCBDE810407F
:104200000BF1010BBBF1010F08BF5FEA170722BFDB
:1042100012F1010211F101014FF0004143F10003DD
:1042200000F0004043EA00007047F9D35708D0E798
:1042300046EA064613F1400F4FEA16461FDD13F11A
:10424000200FDFBF16430A46002120335B42BED059
:10425000C3F1200746EA064602FA07F74FEA164678
:1042600046EA0706C3F1200722FA03F201FA07F72C
:1042700021FA03F14FF0000342EA0702A7E746EAFA
:10428000020646EA06464FEA164646EA0106BCBF63
:1042900046EA0646360C4FF000034FF000024FF09E
:1042A000000194E72DE9804C9A46934670B491E85A
:1042B000380007C831EA400C48BF34EA430C03D544
:1042C000FFF7E6FDFFF780FFF0BCBDE8008C2DE9AD
:1042D000804C9A46934670B491E8380007C810F0B5
:1042E000804F08BF13F0804F03D100F005F8FFF7AF
:1042F0006BFFF0BCBDE8008C20F07F4780EA030034
:1043000023F07F4C07EB0C03A3F57C5300F0004037
:10431000A3F1FE0392F0000F00F0B38095F0000FC0
:1043200000F077802DE901494FEA11404FEA144629
:1043300021EA004800FB06FC24EA064708FB06F6D3
:1043400007FB08F800FB07F718EB06484CEB164C88
:104350004FEA124B18EB07484FEA15464CEB174053
:1043600022EA0B4E0BFB06FC25EA06470EFB06F67F
:1043700007FB0EFE0BFB07F71EEB064E4CEB164C35
:104380004FF000061EEB074E4CEB174B18EB0B08DB
:1043900040F1000018EB0E0B58EB000840F1000054
:1043A0008F1A4FF000013CBFC943661B14BFB5EB29
:1043B000040C00213CBFC943F61B4FEA17444EEAE8
:1043C0008E0E27EA04454FEA1C4704FB07622CEADD
:1043D000074C05FB07F70CFB05F604FB0CFC16EB82
:1043E000074642EB174216EB0C4642EB1C421BEB16
:1043F000060658EB0202414146EA9E0601D5BDE899
:104400000189B619524141EB0101A3F10103BDE855
:1044100001894FEA14454FEA114724EA054621EA8B
:10442000074C05FB07F406FB07F70CFB06F105FB41
:104430000CFC11EB074144EB17444FEA124711EB18
:104440000C4144EB1C4422EA074C05FB07F206FB37
:1044500007F70CFB06F605FB0CFC16EB074642EBD8
:10446000174216EB0C4642EB1C456A1854F100014A
:1044700048BF7047B619524141EB0101A3F1010356
:10448000704795F0000F37D04FEA11424FEA1447BA
:1044900021EA024624EA074C02FB07F106FB07F774
:1044A0000CFB06F402FB0CFC14EB074441EB174138
:1044B0004FEA154714EB0C4441EB1C4125EA074C2D
:1044C00002FB07F506FB07F70CFB06F602FB0CFCEC
:1044D00016EB074645EB174516EB0C4645EB1C4221
:1044E000121951F1000148BF7047B619524141EB12
:1044F0000101A3F1010370474FEA14454FEA114748
:1045000024EA054621EA074C05FB07F106FB07F7FD
:104510000CFB06F24FF0000605FB0CFC12EB074209
:1045200041EB174112EB0C4251EB1C4148BF704765
:10453000921841EB0101A3F101037047490050EAD1
:10454000C12018BF04204A0D18BF40F0010040F2FE
:10455000FF72B2EB515F08BF40F00200012808BFB4
:10456000052070472DE9F0414F1E00EBC7010446BE
:10457000D1E9000115461E4637F006020DD02A4645
:10458000334600F015FC7F1E04EBC703D3E900237C
:1045900000F0BEF937F00602F1D1022F25D0042F2A
:1045A00013D0062F18BFBDE8F0812A46334600F02D
:1045B000FFFBD4E90A2300F0ABF92A46334600F0AA
:1045C000F7FBD4E9082300F0A3F92A46334600F0AC
:1045D000EFFBD4E9062300F09BF92A46334600F0AE
:1045E000E7FBD4E9042300F093F92A46334600F0B0
:1045F000DFFBD4E9022300F08BF92A46334600F0B2
:10460000D7FBD4E90023BDE8F04100F081B90122D5
:1046100001F085B9024A0020110701F080B90000BD
:1046200001FDFFFF30380A2801D201207047002029
:10463000704700002DE9F84F04460D4621F0004078
:1046400000917349814211DC7249884201DC06D134
:104650002CB120462946BDE8F84FFFF7D8BF6E4879
:10466000002DCCBF6D496E49BDE8F88F6D49814280
:1046700011DD6D498142D8BF4FF0FF366DDD204618
:104680002946FFF75BFF042808BFFFF7C3FF20465A
:104690002946BDE8F88F6549654F25F00045814200
:1046A00033DD6449814219DD002632464FF08043F4
:1046B0002046294600F02CF980468A4601222046F1
:1046C000294601F02CF900223B4600F0B1FC42469D
:1046D000534600F0D9F904460D463EE0012600227B
:1046E000BA463B462046294600F012F980460F465E
:1046F000002253462046294600F09AFC42463B469B
:1047000000F0C2F904460D4627E04B4981421BDD0B
:10471000DFF828A10226002253462046294600F051
:1047200047FB00223B4600F0F3F880460F4600228C
:1047300053462046294600F07BFC42463B4600F0AB
:10474000A3F904460D4608E0032622462B46002026
:104750003B4900F099F904460D4622462B46104687
:10476000194600F025FB8B46824602460B4600F0B8
:104770001FFB07460246334888460B46062178440D
:10478000FFF7F0FE52465B4600F012FB82462E48D1
:104790008B463A46434605217844FFF7E3FE3A4606
:1047A000434600F005FB02460B46002E5046594694
:1047B0000CDA00F0ADF822462B4600F0F9FA01B011
:1047C00022462B46BDE8F04F00F026BC00F0A0F8D2
:1047D00022462B4600F0ECFA1C4A7A4402EBC60350
:1047E000D3E9002300F024FC22462B4600F020FCF5
:1047F000174A7A4402EBC603D3E9002300F00CFC0D
:10480000009A002AB8BF81F00041BDE8F88F00008F
:10481000000010440000F07F182D4454FB21F93FA4
:10482000FB21F9BF0000DC3F0000203E0000F33F09
:104830000000F03F0000E63F008003400000F83F2A
:104840000000F0BFC61A0000841A0000221A0000FF
:10485000EA19000010B500290AD00878002807D00E
:1048600005487844FFF762FA002801D0002010BD07
:104870000248784410BD0000FA1A0000F21A000045
:1048800010B500290AD00878002807D005487844D8
:10489000FFF74CFA002801D0002010BD02487844F0
:1048A00010BD0000EA1A0000E21A000021F00042E8
:1048B000A2F16052B2F5801F01F0004328BFD2F18F
:1048C0007F6C0BD95FEA001C43EAC20242EB5070D6
:1048D00018BF704728BF20F001007047B2F5801F55
:1048E000BCBF184670474FEA410C1CF5001F02D2AE
:1048F000084600F02ABF70B500F004FB00000089F4
:10490000FFF7F6BF4FF00040A0F5800070470000B1
:1049100010B591EA030F48BF83F0004300F1908384
:10492000841A71EB030C05D2121943EB0C03001B24
:1049300061EB0C01DFF824E14FEA1154A4EB135CA6
:104940001EEA430F18BF9EEA445F73D023EA0E03AA
:10495000DCF1200E21EA045143F4801332D322FA11
:104960000CFE10EB0E0023FA0CFE41EB0E01CCF115
:10497000200E03FA0EFE10EB0E0051F10001B1F50E
:10498000801FCCF1200E32D201EB045112FA0EF24C
:10499000BDE8104058BF7047401C38BF5FEA420274
:1049A00018BF7047002814BF20F0010041F100013A
:1049B0004FEA410313F5001F38BF7047A1F1C04112
:1049C00000F0EEBA012A43EB0302ACF1200CDCF15B
:1049D0001F0E32BF4FF0000E23FA0CF310EB030052
:1049E00041EB0451B4EB115FD0D0A1EB045101F5C0
:1049F000801149085FEA300001EB04510ED350F1F9
:104A0000000038BF12FA0EFE08D1BDE81040C9E719
:104A1000401C38BF5FEA4202CAD1C3E7BDE810407C
:104A20004FEA410313F5001F38BF7047A1F1C041A1
:104A300000F0B6BA9EEA445F08D011EA5E0FBDE806
:104A4000104004BF01F0004100207047BDE8104055
:104A500070B500F057FA00BF64FBBE3E0000E0FFF7
:104A600002494FF0000000F028BF00BF0000F87FAF
:104A7000491058BFC1F140415B1058BFC3F14043DA
:104A80008B42EFF3008070472DE9C04130B4DFF86E
:104A9000A0C23CEA111418BF3CEA131400F0EC80E9
:104AA00081EA03051CEA111444EAD57418BF1CEA14
:104AB000131500F0C780A4EB05044FF0004545EA4C
:104AC000C12145EAC32341EA505143EA525304F15C
:104AD0007F74994204F500344FEAC0204FEAC222A5
:104AE00008BF904200F09C804FEA13650FF2401619
:104AF000765D4FEA134506FB05F7C7F1807706FBA5
:104B000007F74FEAD737A7FB03687642C8F5803826
:104B1000A7FB06CE38BFA8F1010807FB08E64FF057
:104B2000000EA6FB028CE6FB03CEDCF1000CCEF1FE
:104B3000004E38BFAEF1010EA6FB0C584FF0000737
:104B40004FF00005E6FB0E87A1FB08C6A0FB07CED1
:104B500016EB0E0645F10005E1FB076515F1E04E89
:104B60007EBFA4F580345FEA46066D4116F18007EA
:104B700045F100054FEA17274FEA066647EA056741
:104B8000A6F1DE46B6F1805F4FEA15251FD93846FB
:104B900024F0010C05EBC471BCF1FE6F01EB0C11AC
:104BA00002D8F0BCBDE8008124425CBF01F5801E44
:104BB0009EEAC47F02D4F0BCBDE80081244238D410
:104BC000F0BCA1F1C041BDE8004100F0E9B94FEAF5
:104BD000D22242EA43524FEAD323A7FB02864FEA8E
:104BE000D02040EA415007FB03661EEA0E0F4FEA51
:104BF000D12105FB026658BFA6EB0056B6EB005666
:104C00004FEA520E4EEAC37E18EB0E0E56EB530ED1
:104C1000BDD518EB02085E417F1C55F10005B6E7D3
:104C20004FF480154FF000074FF000064FF00008DA
:104C3000ADE7F0BC4FF0000001F1C04101F00041D0
:104C4000BDE8008111EA0C1F0CEA131500D00CE03E
:104C500013EA0C1F00F025804FF00000F0BC81EA41
:104C6000030101F00041BDE80081F0BCBDE8004156
:104C700081EA030100F094B9F0BCBDE8004170B5D1
:104C800000F040F9097EFC3E00F007B881EA03011C
:104C90004FF0000001F00041704781EA030100F08D
:104CA0007FB9F0BCBDE800414FF0000021497047DA
:104CB000FFFDFBF9F7F5F4F2F0EEEDEBE9E8E6E4E1
:104CC000E3E1E0DEDDDBDAD8D7D5D4D3D1D0CFCD68
:104CD000CCCBCAC8C7C6C5C4C2C1C0BFBEBDBCBBA1
:104CE000BAB9B8B7B6B5B4B3B2B1B0AFAEADACAB9C
:104CF000AAA9A8A8A7A6A5A4A3A3A2A1A09F9F9E76
:104D00009D9C9C9B9A999998979796959594939327
:104D1000929191908F8F8E8E8D8C8C8B8B8A8989BE
:104D20008888878786858584848383828281818041
:104D30000000FF070000F87F51EA030C17D41CF5B0
:104D4000801F58BFBCF5801F00F10680994218BF34
:104D5000704708BF9042704707D711F5801F58BFB2
:104D600013F5801F19D499427047894270471CF58A
:104D7000801F08D5BCF5801FF7D58B4218BF704740
:104D800008BF824270474FF4001C1CEB410F38BF34
:104D90001CEB430F01D28B42704770B500F0B2F8A4
:104DA000922449004FF000514FF08053FFF760BE4E
:104DB000DFF848C170B51CEA111E1EBF1CEA1315AE
:104DC0009EEA0C0F95EA0C0F00F06F8081EA030455
:104DD00023EA4C134EEAD47E21EA4C1141F48011AF
:104DE00043F48013AE44A1FB024CA0FB0365AEF17B
:104DF0007F7E361955EB0C05A1FB034C4CF10003EB
:104E0000A0FB021C16EB0C06654153F1000309429E
:104E100018BF46F0010613F4007F0BD14FEA0331AF
:104E20004FEA0530340341EA155140EA16506FF05D
:104E300003020AE04FEAC3214FEAC520F40241EA27
:104E4000555140EA56506FF0020202EB2E4201EB40
:104E5000025585EACE710AD05FEA440C18BF24F0EF
:104E6000004450F1000041F1000120EAD47040F20A
:104E7000FE7C624500D270BDA84214BF4FF0804452
:104E80004FF04044002E08BF0024BEF1806FA8BF41
:104E9000A1F1C041BDE8704080F282804FF0000077
:104EA00001F1C04101F0004170479EEA0C0F0CEA8D
:104EB000131518BF95EA0C0F06D04FF0000081EAD9
:104EC000030E0EF0004170BD00F01CF88900013E99
:104ED00000F007B800F009B84FEA430C5FEA5C5CE9
:104EE00008D081EA030100F05BB84FEA410C5FEAA9
:104EF0005C5CF6D14FF00000014970470000FF07ED
:104F00000000F87F0EF1020E2EF0030E5EF8046B27
:104F1000364205D4012A43EB030515F5001F12D8CC
:104F2000012841EB010C1CF5001F0CD80ED14FEAF3
:104F3000D17C15F5001F0CEB4C0C0CF1020C08BFDA
:104F40004CEBD37C04E04FF0080C01E04FEAD37C3B
:104F50000CEB4C0526FA05F606F00706B6F1040C34
:104F600006D20EEB860CBDE870404CF0010C604799
:104F7000DFE80CF0090B02024FF000414FF0000097
:104F8000A1F5002170BD19461046012851EB01041E
:104F900018BFD4F5001484BF002001F0004170BD9B
:104FA0000808A0F500114FEA3101704753EA010CDF
:104FB00017D41CF5801F58BFBCF5801F00F1068078
:104FC0008B4218BF704708BF8242704707D713F55E
:104FD000801F58BF11F5801F19D48B4270479B4228
:104FE00070471CF5801F08D5BCF5801FF7D5994286
:104FF00018BF704708BF904270474FF4001C1CEB6D
:10500000430F38BF1CEB410F01D2994270470FB4D8
:105010000CBC03BCFFF7C1BE91EA030F10B581F0D1
:1050200000413FF57DAC83F0004300F009B800007B
:1050300010B591EA030F48BF83F000433FF570AC11
:10504000841A71EB030C07D212198CF0004C43EB5D
:105050000C03001B61EB0C01DFF8A4E14FEA1154D3
:10506000A4EB135C1EEA430F18BF9EEA445F00F0F6
:10507000B08023EA6E03524221EA0451C3EB6E036F
:1050800038BF5B1EDCF1200E25D322FA0CFE10EB9C
:105090000E0043FA0CFE41EB0E01CCF1200E03FA98
:1050A0000EFE10EB0E0051F10001CCF1200E29D4C0
:1050B00012FA0EF201EB0451BDE8104058BF7047E0
:1050C000401C1CBFB2F1004F704700280CBF491CA8
:1050D00020F00100704712EB020E43EB030218BFF1
:1050E0004FF0010E4EEA4202ACF1200CDCF11E0E34
:1050F00054D943FA0CFE10EB0E0051F1FF31CCF104
:105100001E0ED5D50EF1010E12FA0EFE404141EBF6
:10511000010101EB445C5FEA5C5C10D910EBDE70CE
:1051200001EB045138BFBEF1004FBDE8104018BF7D
:10513000704700280CBF491C20F00100704730D296
:105140004FEAD42C11F5001124F400641BD0B1FAFD
:1051500081F20B3AA41AA41ED2F12003914030FA36
:1051600003F31943904001EBCC71002C01EB045187
:10517000BDE81040A8BF704701F1C0414FF00000EA
:1051800001F000417047B0FA80F310FA03F100D14A
:1051900010BDE41A173C4805C90AE4E701EB0451C5
:1051A00010BD491001EB0451BDE810404FEA30003A
:1051B00002E04FF0000170474A0008BF0042F8D0FB
:1051C000B2F5001F28BF704701F000414FF000000A
:1051D00070479EEA445F07D011EA5E0FBDE81040B9
:1051E00004BF002100207047BDE8104070B5FFF7F4
:1051F00089FE00BF40DFF63E83F000411046704755
:105200000000E0FF43004FEAD30C4FEA3C0C434060
:105210001FBF40070CF1605113F0FE4F70471CF0A8
:10522000006F03D100200CF0004170470CF00043E8
:1052300043EA507010B540EACC0000F040FA00BFDD
:10524000000000924FEA0001FFF7AABE4FF00041B4
:105250004FF00000A1F500217047000090EA010F17
:1052600048BF81F0004100F1B882421A3CBF801A69
:1052700089184FEAD0524FF07F4C1CEA410FA2EB45
:10528000D15318BF9CEA026F00F03B804FF0004CF6
:105290004CEA00204CEA012121FA03FC10EB0C0C33
:1052A0001ED202F1FF325FEA1C2040EBC25038BF31
:1052B00070471CF07F0F4FEA400C18BFBCF17F4FC6
:1052C00038BF7047C3F12003994008BF20F00100A8
:1052D000BCF17F4F38BF7047A0F1C04000F035BA35
:1052E0004FEA3C00000A40EBC25028BF1CF0FF0F01
:1052F0004FEA400CE6D018BFBCF17F4F38BF704773
:10530000EAE79CEA026F05D010EA5C0F08BF00F0E4
:105310000040704710B500F0D2F900BF64FBBE3EFC
:10532000401058BFC0F14040491058BFC1F1404142
:105330008142EFF3008070474FF47F0C1CEAD012DB
:105340001EBF1CEAD11392EA0C0F93EA0C0F00F077
:10535000858090EA010F48BF42F4807240F4000C4F
:1053600041F400002CF07F4120F07F4000B58142E5
:10537000A2EB03020FF2081CACEB504EC0F1000090
:105380009EF800E04FEA4E0E00FB0EFC38BF4900CD
:105390004FEA2C1C02F5FA020CFB0EF34FEACE1E6C
:1053A0004FEA112C4FEAC1210EEB635E42EB224221
:1053B0000EFB0CFC4FEA1C5300FB03114FEA112CAF
:1053C0004FEA01310EFB0CFC4FEADC4C00FB0C11E8
:1053D000C14228BF09184CEB03335DF804EB10EB16
:1053E000410143EBC250B2F57C0F38BF704729D55D
:1053F00012F0F00F1CBF00F1C04000F000407047F9
:10540000008182838485868788898B8C8D8E8F919D
:105410009293959697999A9C9D9FA0A2A3A5A7A8C1
:10542000AAACAEB0B2B3B5B7B9BCBEC0C2C5C7C9ED
:10543000CCCED1D4D7D9DCDFE2E6E9ECF0F3F7FA51
:10544000FE0000004FEA400C0CF1807CBCF17E4F66
:1054500028BF7047B0F1C04000F077B990EA010F63
:105460000CEAD11348BF42F48072624538BF6345ED
:1054700007D213F47F0F16D080EA010000F000403D
:10548000704710B500F01BF9097EFC3E00F005B82E
:1054900080EA010000F00040704780EA010000F05F
:1054A000004000F052B912F47F0F04BF0248704769
:1054B00080EA010000F049B90000C07FC10DD1F1C0
:1054C0009E0206DB4FEA002343F0004323FA02F07A
:1054D0007047004207D54FEA4001B1F1FE4F02D2BA
:1054E0004FF00000704710B500F0E9F849922480B1
:1054F000002070476FEA20007047000010F0004164
:1055000048BF4042B0FA80F310FA03F2C3F19D03A2
:105510000BD051EAC35101EB1220530638BF70473C
:1055200000F1010008BF20F001007047B0FA80F3DD
:1055300010FA03F2C3F19D030AD0D90501EB122042
:10554000530638BF704700F1010008BF20F001008A
:105550007047000050EA010C00F113801CF5000FA9
:1055600058BFBCF5000F01D48842704707D710F52B
:10557000000F58BF11F5000F15D4884270478942BB
:1055800070471CF5000F04D5BCF5000FF7D581421C
:1055900070474FF0807C1CEB400F38BF1CEB410F75
:1055A00001D28142704710B500F089F89224490079
:1055B0004FF000504FF08051FFF7B2BE4FF47F0C18
:1055C0001CEAD0121EBF1CEAD11392EA0C0F93EA18
:1055D0000C0F00F0478090EA010F48BF42F4807240
:1055E0004FF0004C4CEA00204CEA012102EB030290
:1055F000A0FB0113A2F50002002918BF43F001032C
:105600005B0028BF4FEA330342EB22425FEA132CD0
:105610004CEBC2502EBFBCEB436FB2F57C0F704712
:105620004FEA036CBCF1004F08BF20F00100B2F557
:105630007C0F38BF70470BD582F0FF0212F5803F18
:10564000C8BF704700F1C040D8BF00F000407047AD
:1056500000F5000C5FEA4C0C48BF7047B0F1C04049
:1056600000F073B890EA010F0CEAD11348BF42F47E
:105670008072624538BF634504D280EA010000F0C1
:105680000040704710B500F01AF800BF8900013ED5
:1056900000F007B800F009B85FEA410C5FEA1C6C43
:1056A00008D080EA010000F050B85FEA400C5FEAE1
:1056B0001C6CF6D14FF00040A0F5800070470EF151
:1056C000020E2EF0030E5EF8044B244204D44FEA7F
:1056D0004102B2F17F4F11D84FEA4003B3F17F4F3F
:1056E0000CD80ED14FEAD07CB2F17F4F0CEB4C0CB2
:1056F0000CF1020C08BF4CEBD17C04E04FF0080C1D
:1057000001E04FEAD17C0CEB4C0324FA03F404F0E3
:105710000704B4F1040C06D20EEB840CBDE8104073
:105720004CF0010C6047DFE80CF0070802024FF074
:105730000040A0F5800010BD0846420018BFD2F11D
:10574000807288BF00F0004010BDFF2141EAD050B8
:10575000C005704751EA000C00F113801CF5000FE2
:1057600058BFBCF5000F01D48142704707D711F52F
:10577000000F58BF10F5000F15D4814270478942C1
:1057800070471CF5000F04D5BCF5000FF7D5884213
:1057900070474FF0807C1CEB410F38BF1CEB400F73
:1057A00001D28842704780EA010081EA000180EA64
:1057B0000100FFF7F8BE80F0004090EA010F7FF58E
:1057C00054AD81F0004100F008B8000090EA010FEC
:1057D00048BF81F000413FF548AD421A04D882F03D
:1057E0000042A0EB020011444FEAD0524FF07F4C30
:1057F0001CEA410FA2EBD15318BF9CEA026F4AD0BA
:105800004FF0004C4CEA00204CEA012121FA03FC45
:10581000B0EB0C0C0FD412F0FE0F36D05FEA4C0048
:105820001DD5001240EBC25038BF70471CF03F0F2F
:1058300018BF70470BE0A2F101025FEA1C2040EBA9
:10584000C25038BF70471CF07F0F18BF7047C3F1BC
:105850002003994014BF401E20F0010070478008CB
:105860004FEA122308BF7047B0FA80FCA2EB0C028B
:10587000CCF1280C60FA0CF093EA122F04BF00EB75
:10588000C25070474FEAC3707047130A5FEADC10DA
:1058900008BF7047F6E79CEA026F04D010EA5C0F7D
:1058A00008BF0020704710B5FFF709FF40DFF63E44
:1058B00081F000407047FDF7D4BD0CF00F03092BB9
:1058C00008BF082000F059800A2B0BD0082B18BF06
:1058D000704708BF1CF0400F0AD04FF000004FF097
:1058E000000170471CF0400F18BF4FF00040704798
:1058F0001CF0100F08D020F0704300F07F4242EA05
:10590000D3014FEA4370704700F0604021F07F42BE
:1059100042EA000201F07F4040EA727070474FF0A7
:10592000FF0C4CF4E06C1CEA11531CBF9CEA030C06
:105930009445C2BFDA4201EB02517047002B0DD0F3
:10594000BCF1000F0FD0002A01F00041A4BF41F0CC
:10595000E04141F07F614FF00000704701F00041ED
:105960004FF00000704750EA01334FF09B0C18BF16
:105970004CF0806C7FF474A870471CF4801F11D029
:105980001CF4E02F03D06FEACC31490070474FF090
:105990004050EFF3008222F0704242EA000282F3AC
:1059A000008870474FF000007047000000000000C2
:1059B0000000002F000000000700070000147F1403
:1059C0007F1400242A7F2A12006264081323003601
:1059D0004955225000000503000000001C22410030
:1059E000000041221C000014083E08140008083E74
:1059F0000808000000A0600000080808080800006F
:105A000060600000002010080402003E5149453E3D
:105A10000000427F4000004261514946002141455B
:105A20004B31001814127F10002745454539003CC2
:105A30004A49493000017109050300364949493690
:105A400000064949291E000036360000000056367F
:105A50000000000814224100001414141414000063
:105A60004122140800020151090600324959513EF1
:105A7000007C1211127C007F49494936003E4141A9
:105A80004122007F4141221C007F49494941007F5A
:105A900009090901003E4149497A007F0808087F49
:105AA0000000417F4100002040413F01007F081479
:105AB0002241007F40404040007F020C027F007F77
:105AC0000408107F003E4141413E007F090909065C
:105AD000003E4151215E007F09192946004649498F
